{
  "_format": "hh-sol-artifact-1",
  "contractName": "EthSwap",
  "sourceName": "contracts/EthSwap.sol",
  "abi": [
    {
      "inputs": [
        {
          "internalType": "contract Token",
          "name": "_token",
          "type": "address"
        }
      ],
      "stateMutability": "nonpayable",
      "type": "constructor"
    },
    {
      "inputs": [],
      "name": "EthSwap__NotEnoughtBalance",
      "type": "error"
    },
    {
      "inputs": [],
      "name": "EthSwap__NotEnoughtTokens",
      "type": "error"
    },
    {
      "anonymous": false,
      "inputs": [
        {
          "indexed": false,
          "internalType": "address",
          "name": "buyer",
          "type": "address"
        },
        {
          "indexed": false,
          "internalType": "address",
          "name": "token",
          "type": "address"
        },
        {
          "indexed": false,
          "internalType": "uint256",
          "name": "amount",
          "type": "uint256"
        },
        {
          "indexed": false,
          "internalType": "uint256",
          "name": "rate",
          "type": "uint256"
        }
      ],
      "name": "TokenPurchased",
      "type": "event"
    },
    {
      "anonymous": false,
      "inputs": [
        {
          "indexed": false,
          "internalType": "address",
          "name": "buyer",
          "type": "address"
        },
        {
          "indexed": false,
          "internalType": "address",
          "name": "token",
          "type": "address"
        },
        {
          "indexed": false,
          "internalType": "uint256",
          "name": "amount",
          "type": "uint256"
        },
        {
          "indexed": false,
          "internalType": "uint256",
          "name": "rate",
          "type": "uint256"
        }
      ],
      "name": "TokenSold",
      "type": "event"
    },
    {
      "inputs": [],
      "name": "buyToken",
      "outputs": [],
      "stateMutability": "payable",
      "type": "function"
    },
    {
      "inputs": [],
      "name": "getName",
      "outputs": [
        {
          "internalType": "string",
          "name": "",
          "type": "string"
        }
      ],
      "stateMutability": "view",
      "type": "function"
    },
    {
      "inputs": [],
      "name": "name",
      "outputs": [
        {
          "internalType": "string",
          "name": "",
          "type": "string"
        }
      ],
      "stateMutability": "view",
      "type": "function"
    },
    {
      "inputs": [
        {
          "internalType": "uint256",
          "name": "_amount",
          "type": "uint256"
        }
      ],
      "name": "sellToken",
      "outputs": [],
      "stateMutability": "payable",
      "type": "function"
    },
    {
      "inputs": [],
      "name": "token",
      "outputs": [
        {
          "internalType": "contract Token",
          "name": "",
          "type": "address"
        }
      ],
      "stateMutability": "view",
      "type": "function"
    }
  ],
  "bytecode": "0x60806040526040518060400160405280600781526020017f41505f53776170000000000000000000000000000000000000000000000000008152506000908051906020019062000051929190620000d2565b5060646002553480156200006457600080fd5b5060405162000d5038038062000d5083398181016040528101906200008a919062000199565b80600160006101000a81548173ffffffffffffffffffffffffffffffffffffffff021916908373ffffffffffffffffffffffffffffffffffffffff1602179055505062000297565b828054620000e09062000213565b90600052602060002090601f01602090048101928262000104576000855562000150565b82601f106200011f57805160ff191683800117855562000150565b8280016001018555821562000150579182015b828111156200014f57825182559160200191906001019062000132565b5b5090506200015f919062000163565b5090565b5b808211156200017e57600081600090555060010162000164565b5090565b60008151905062000193816200027d565b92915050565b600060208284031215620001b257620001b162000278565b5b6000620001c28482850162000182565b91505092915050565b6000620001d882620001f3565b9050919050565b6000620001ec82620001cb565b9050919050565b600073ffffffffffffffffffffffffffffffffffffffff82169050919050565b600060028204905060018216806200022c57607f821691505b6020821081141562000243576200024262000249565b5b50919050565b7f4e487b7100000000000000000000000000000000000000000000000000000000600052602260045260246000fd5b600080fd5b6200028881620001df565b81146200029457600080fd5b50565b610aa980620002a76000396000f3fe60806040526004361061004a5760003560e01c806306fdde031461004f57806317d7de7c1461007a5780632397e4d7146100a5578063a4821719146100c1578063fc0c546a146100cb575b600080fd5b34801561005b57600080fd5b506100646100f6565b60405161007191906107f6565b60405180910390f35b34801561008657600080fd5b5061008f610184565b60405161009c91906107f6565b60405180910390f35b6100bf60048036038101906100ba919061065b565b610216565b005b6100c96103c0565b005b3480156100d757600080fd5b506100e06105c9565b6040516100ed91906107db565b60405180910390f35b6000805461010390610970565b80601f016020809104026020016040519081016040528092919081815260200182805461012f90610970565b801561017c5780601f106101515761010080835404028352916020019161017c565b820191906000526020600020905b81548152906001019060200180831161015f57829003601f168201915b505050505081565b60606000805461019390610970565b80601f01602080910402602001604051908101604052809291908181526020018280546101bf90610970565b801561020c5780601f106101e15761010080835404028352916020019161020c565b820191906000526020600020905b8154815290600101906020018083116101ef57829003601f168201915b5050505050905090565b6000600254826102269190610834565b905080471015610262576040517ff58c19cf00000000000000000000000000000000000000000000000000000000815260040160405180910390fd5b600160009054906101000a900473ffffffffffffffffffffffffffffffffffffffff1673ffffffffffffffffffffffffffffffffffffffff166323b872dd3330856040518463ffffffff1660e01b81526004016102c193929190610736565b602060405180830381600087803b1580156102db57600080fd5b505af11580156102ef573d6000803e3d6000fd5b505050506040513d601f19601f82011682018060405250810190610313919061062e565b503373ffffffffffffffffffffffffffffffffffffffff166108fc829081150290604051600060405180830381858888f1935050505015801561035a573d6000803e3d6000fd5b507fa8a7473f10e62cf9687e243de1c3ac8b3cbc3dd04b96826beb3a65b59538581433600160009054906101000a900473ffffffffffffffffffffffffffffffffffffffff16846002546040516103b4949392919061076d565b60405180910390a15050565b6000600254346103d09190610865565b905080600160009054906101000a900473ffffffffffffffffffffffffffffffffffffffff1673ffffffffffffffffffffffffffffffffffffffff166370a08231306040518263ffffffff1660e01b815260040161042e919061071b565b60206040518083038186803b15801561044657600080fd5b505afa15801561045a573d6000803e3d6000fd5b505050506040513d601f19601f8201168201806040525081019061047e9190610688565b116104b5576040517fc06269f100000000000000000000000000000000000000000000000000000000815260040160405180910390fd5b600160009054906101000a900473ffffffffffffffffffffffffffffffffffffffff1673ffffffffffffffffffffffffffffffffffffffff1663a9059cbb33836040518363ffffffff1660e01b81526004016105129291906107b2565b602060405180830381600087803b15801561052c57600080fd5b505af1158015610540573d6000803e3d6000fd5b505050506040513d601f19601f82011682018060405250810190610564919061062e565b507f8daf503382665d950e449b86172be5222275c90f4ddf69c29fdaa8237a562a6d33600160009054906101000a900473ffffffffffffffffffffffffffffffffffffffff16836002546040516105be949392919061076d565b60405180910390a150565b600160009054906101000a900473ffffffffffffffffffffffffffffffffffffffff1681565b6000815190506105fe81610a45565b92915050565b60008135905061061381610a5c565b92915050565b60008151905061062881610a5c565b92915050565b60006020828403121561064457610643610a2f565b5b6000610652848285016105ef565b91505092915050565b60006020828403121561067157610670610a2f565b5b600061067f84828501610604565b91505092915050565b60006020828403121561069e5761069d610a2f565b5b60006106ac84828501610619565b91505092915050565b6106be816108bf565b82525050565b6106cd81610907565b82525050565b60006106de82610818565b6106e88185610823565b93506106f881856020860161093d565b61070181610a34565b840191505092915050565b610715816108fd565b82525050565b600060208201905061073060008301846106b5565b92915050565b600060608201905061074b60008301866106b5565b61075860208301856106b5565b610765604083018461070c565b949350505050565b600060808201905061078260008301876106b5565b61078f60208301866106b5565b61079c604083018561070c565b6107a9606083018461070c565b95945050505050565b60006040820190506107c760008301856106b5565b6107d4602083018461070c565b9392505050565b60006020820190506107f060008301846106c4565b92915050565b6000602082019050818103600083015261081081846106d3565b905092915050565b600081519050919050565b600082825260208201905092915050565b600061083f826108fd565b915061084a836108fd565b92508261085a576108596109d1565b5b828204905092915050565b6000610870826108fd565b915061087b836108fd565b9250817fffffffffffffffffffffffffffffffffffffffffffffffffffffffffffffffff04831182151516156108b4576108b36109a2565b5b828202905092915050565b60006108ca826108dd565b9050919050565b60008115159050919050565b600073ffffffffffffffffffffffffffffffffffffffff82169050919050565b6000819050919050565b600061091282610919565b9050919050565b60006109248261092b565b9050919050565b6000610936826108dd565b9050919050565b60005b8381101561095b578082015181840152602081019050610940565b8381111561096a576000848401525b50505050565b6000600282049050600182168061098857607f821691505b6020821081141561099c5761099b610a00565b5b50919050565b7f4e487b7100000000000000000000000000000000000000000000000000000000600052601160045260246000fd5b7f4e487b7100000000000000000000000000000000000000000000000000000000600052601260045260246000fd5b7f4e487b7100000000000000000000000000000000000000000000000000000000600052602260045260246000fd5b600080fd5b6000601f19601f8301169050919050565b610a4e816108d1565b8114610a5957600080fd5b50565b610a65816108fd565b8114610a7057600080fd5b5056fea264697066735822122065aa6b0069cfcc7e79fee72180449c15a9a48d5f8921c1d33438091c98db0fcb64736f6c63430008070033",
  "linkReferences": {},
  "deployedLinkReferences": {}
}